:100000000C9434000C9451000C9451000C94510049
:100010000C9451000C9451000C9451000C9451001C
:100020000C9451000C9451000C9451000C9451000C
:100030000C9451000C9451000C94AB010C945100A1
:100040000C9451000C9451000C9407060C94C605B6
:100050000C9451000C9451000C9451000C945100DC
:100060000C9451000C94510011241FBECFEFD8E026
:10007000DEBFCDBF11E0A0E0B1E0E2EFFFE002C0E3
:1000800005900D92AA36B107D9F721E0AAE6B1E0B2
:1000900001C01D92A63BB207E1F70E943C060C94FA
:1000A000F7070C94000080917D01813031F4E091DC
:1000B0006C01F0E0E758FE4F80838091720181303F
:1000C00039F4E0916C01F0E0E758FE4F82E0808364
:1000D00080917801813039F4E0916C01F0E0E758CB
:1000E000FE4F83E0808380916A01813039F4E09192
:1000F0006C01F0E0E758FE4F84E08083809174014A
:10010000813039F4E0916C01F0E0E758FE4F85E072
:10011000808380918001813039F4E0916C01F0E0BE
:10012000E758FE4F86E0808380917E01813039F46C
:10013000E0916C01F0E0E758FE4F87E0808380910A
:100140007301813039F4E0916C01F0E0E758FE4F23
:1001500088E0808380917501813039F4E0916C01F1
:10016000F0E0E758FE4F89E0808380916B01813099
:1001700031F4E0916C01F0E0E758FE4F10820895F1
:1001800084B1836C84B985B18C7385B987B1807F64
:1001900087B988B18F6088B984B5826084BD85B520
:1001A000856085BD86E287BDEEE6F0E080818260F5
:1001B0008083089580917D01813049F480917D0193
:1001C0008111FCCF81E080937D0180936D0180914E
:1001D0007201813049F4809172018111FCCF81E07C
:1001E0008093720180936D0180917801813049F490
:1001F000809178018111FCCF81E080937801809318
:100200006D0180916A01813049F480916A01811108
:10021000FCCF81E080936A0180936D01809174012D
:10022000813049F4809174018111FCCF81E0809389
:10023000740180936D0180918001813049F4809137
:1002400080018111FCCF81E08093800180936D015A
:1002500080917E01813049F480917E018111FCCF33
:1002600081E080937E0180936D01809173018130E4
:1002700049F4809173018111FCCF81E08093730177
:1002800080936D0180917501813049F480917501F1
:100290008111FCCF81E08093750180936D01809185
:1002A0006B01813049F480916B018111FCCF81E0B9
:1002B00080936B0180936D0180917701813049F4C7
:1002C000809177018111FCCF81E080937701809349
:1002D0006D0180917101813049F48091710181112A
:1002E000FCCF81E08093710180936D0180917F014B
:1002F000813049F480917F018111FCCF81E08093AE
:100300007F0180936D0180916E01813049F480916D
:100310006E018111FCCF81E080936E0180936D01AD
:1003200080918101813049F4809181018111FCCF5C
:1003300081E08093810180936D018091760181300D
:1003400049F4809176018111FCCF81E080937601A0
:1003500080936D0108951F920F920FB60F92112492
:100360008F9385B18C73836485B9339904C081E020
:100370008093810102C010928101329904C081E012
:100380008093720102C010927201319904C081E021
:100390008093780102C010927801309904C081E006
:1003A0008093770102C01092770185B18C738368C6
:1003B00085B9339904C081E080937D0102C0109219
:1003C0007D01329904C081E08093740102C01092D3
:1003D0007401319904C081E08093800102C01092C1
:1003E0008001309904C081E08093710102C01092B5
:1003F000710185B18C73816C85B9339904C081E03A
:1004000080936A0102C010926A01329904C081E0AF
:100410008093730102C010927301319904C081E08E
:100420008093750102C010927501309904C081E07B
:1004300080937F0102C010927F0185B18C73826C22
:1004400085B9339904C081E080937E0102C0109287
:100450007E01329904C081E080936B0102C010924A
:100460006B01319904C081E08093760102C0109243
:100470007601309904C081E080936E0102C0109231
:100480006E018F910F900FBE0F901F901895559A87
:10049000549A539A529A089580FF02C05A9A01C002
:1004A0005A9881FF02C05B9A01C05B9882FF02C02C
:1004B0005C9A01C05C9883FF02C05D9A08955D98C4
:1004C0000895CF93C82F0E9447025E9A8C2F829581
:1004D0008F700E944C025E985E9A8C2F0E944C0294
:1004E0005E988FEE90E00197F1F700C00000CF9189
:1004F00008955F980C9461025F9A0C9461020C94C9
:100500007C02CF93DF93EC018991882319F00E943C
:100510007C02FACFDF91CF910895CF93DF93FC0156
:100520008491EF012196882321F00E947C02FE0134
:10053000F7CFDF91CF910895CF93DF93EC01219610
:100540000E94EF07882321F00E947C02CE01F6CFA3
:10055000DF91CF910895CF93DF93CDB7DEB7619749
:100560000FB6F894DEBF0FBECDBF4AE0BE016F5F8D
:100570007F4F0E9489070E94810261960FB6F8940E
:10058000DEBF0FBECDBFDF91CF910895CF93DF9334
:10059000CDB7DEB761970FB6F894DEBF0FBECDBF03
:1005A00020E1AE014F5F5F4F0E9494070E948102DD
:1005B00061960FB6F894DEBF0FBECDBFDF91CF912D
:1005C00008950F931F93CF93DF938B018770880F4C
:1005D000880F880F805C0E947902E801085F1F4F36
:1005E00089910E947C02C017D107D1F7DF91CF918A
:1005F0001F910F9108950F931F93CF93DF93EB01FA
:100600008770880F880F880F805C0E9479028E01A6
:10061000085F1F4FFE0184910E947C022196C01743
:10062000D107C1F7DF91CF911F910F910895EF92FC
:10063000FF920F931F93CF93DF93EB018770880F87
:10064000880F880F805C0E9479028E01085F1F4F1F
:100650007E018FEFE81AF80ACE010E94EF070E9490
:100660007C02E701E016F10699F7DF91CF911F9127
:100670000F91FF90EF900895813009F480E4605865
:10068000860F0C94790281E00E94790287E496E259
:100690000197F1F700C0000008950E944702579AA1
:1006A000569A5F9A5E9A8FE295E70197F1F700C03C
:1006B00000005E985F985E9A83E00E944C025E980C
:1006C00087E090E20197F1F700C000005E9A83E0B6
:1006D0000E944C025E9887EC90E00197F1F700C011
:1006E00000005E9A83E00E944C025E9887EC90E0E6
:1006F0000197F1F700C000005E9A82E00E944C0270
:100700005E9887EC90E00197F1F700C0000088E266
:100710000E94790288E00E9479028CE00E947902AE
:1007200086E00E9479020C944303CF93DF93EC019F
:100730000E94430360E080E00E943C038BE491E070
:100740000E94810260E081E00E943C032AE02C9F2D
:10075000C0012D9F900D112480509F4FDF91CF91AC
:100760000C9481020F931F93CF93DF938C010E940F
:10077000430360E080E00E943C038AE591E00E9430
:10078000810260E081E00E943C03C0E0D0E0C0173D
:10079000D10734F487E691E00E9481022196F7CFD9
:1007A000DF91CF911F910F910895CF93C62F2A9873
:1007B000880F8E770E9436068C2F0E9436062A9A62
:1007C000CF9108952A98880F8E7780680E94360608
:1007D00080E00E9436062A9A08956FE081E00C942A
:1007E000D5030E94ED036DE88AE20E94D5036EE313
:1007F0008BE20E94D5036EE18CE20E94D50360E09B
:100800008DE20E94D50360E485E10E94D5036DE38B
:1008100081E10E94D50384E10E94E203982F937046
:1008200029F4682F636084E10C94D50308953F9206
:100830004F925F926F927F928F929F92AF92BF92F0
:10084000CF92DF92EF92FF920F931F93CF93DF939C
:10085000D82E5B01842E7901E8018CE0D81631F0A6
:10086000EEE0DE1641F0312CC12C09C070E3372ECA
:10087000E7E7CE2E04C050E1352E62E1C62E84E0BB
:100880000E94E203682F6F7784E00E94D5038AE01C
:100890000E94E203682F60688AE00E94D50360E04E
:1008A00081E00E94D5038501412C512C3201912C0D
:1008B000A12CB12C481459046A047B0460F4F8019B
:1008C00061918F0189E00E94D503FFEF4F1A5F0A03
:1008D0006F0A7F0AEFCF6D2D81E00E94D5038CE077
:1008E000D81208C08DE00E94E203682F60688DE096
:1008F0000E94D50340ED842E47E0942EA12CB12C0C
:10090000132D116084E00E94E203082FE1E08E1AAB
:100910009108A108B10819F0812F802399F38DE087
:100920000E94E203682F6F778DE00E94D50389282B
:100930008A288B2811F403E050C086E00E94E2036D
:100940008B71C9F78C2D8170C82EC02211F002E086
:1009500001C001E0FCE0DF1240C08AE00E94E20337
:10096000182F8CE00E94E203282F2770812F90E03F
:1009700049F0019733E0880F991F3A95E1F7820F0C
:10098000911D05C023E0880F991F2A95E1F7092ED4
:10099000000CAA0BBB0B88839983AA83BB8311230A
:1009A00021F0113118F010E101C011E0E701812CB4
:1009B000912C5401C12ED12CE12CF12C8C149D04CE
:1009C000AE04BF0450F489E00E94E20389938FEFE4
:1009D000881A980AA80AB80AF1CF802FDF91CF9120
:1009E0001F910F91FF90EF90DF90CF90BF90AF904D
:1009F0009F908F907F906F905F904F903F90089561
:100A0000EF92FF920F931F93CF93DF9300D000D00C
:100A1000CDB7DEB7182F7B0167E08DE00E94D503CC
:100A2000F70110838E010F5F1F4F970141E0B7015F
:100A30008CE00E941704813049F449815A816B810E
:100A40007C81403151056105710509F083E00F900B
:100A50000F900F900F90DF91CF911F910F91FF900A
:100A6000EF900895EF92FF920F931F93CF93DF9330
:100A700000D000D0CDB7DEB77C0160E08DE00E94F1
:100A8000D50383E9F701808380E281838E010F5FC4
:100A90001F4F970142E0B7018CE00E94170481309C
:100AA00071F4F70197012C5F3F4F90E0419194273B
:100AB000E217F307D9F7F7012481921383E00F902F
:100AC0000F900F900F90DF91CF911F910F91FF909A
:100AD000EF9008959093C5008093C40088E98093B7
:100AE000C1008EE08093C20008959091C00095FFF0
:100AF000FCCF8093C6000895909182019F5F9F7004
:100B0000209183019217E1F3E92FF0E0EC57FE4FBB
:100B10008083909382018091C10080628093C100A4
:100B20000895CF93DF93EC018991882319F00E94F7
:100B30007C05FACFDF91CF910895CF93DF93EC013D
:100B40008991882319F00E947505FACFDF91CF9122
:100B50000895CF93DF93CDB7DEB761970FB6F894C2
:100B6000DEBF0FBECDBFAB01BE016F5F7F4F0E94E6
:100B70007E07CE0101960E94910561960FB6F8940A
:100B8000DEBF0FBECDBFDF91CF9108951F920F92B0
:100B90000FB60F9211248F939F93EF93FF93909131
:100BA000820180918301981779F0809183018F5F92
:100BB0008F7080938301E0918301F0E0EC57FE4F4A
:100BC00080818093C60005C08091C1008F7D809395
:100BD000C100FF91EF919F918F910F900FBE0F90E9
:100BE0001F9018959091940180919501981769F044
:100BF000809195018F5F8F7180939501E0919501B0
:100C0000F0E0EA56FE4F8081089580E008951F923B
:100C10000F920FB60F9211248F939F93EF93FF9330
:100C20008091C600E0919401EF5FEF719091950182
:100C3000E91731F0E0939401F0E0EA56FE4F80832B
:100C4000FF91EF919F918F910F900FBE0F901F908A
:100C500018958091C00087FFFCCF8091C600089551
:100C600084B18C6284B981E58CBD08958EBD0DB4CC
:100C700007FEFDCF8EB50895CF93DF93CDB7DEB7D6
:100C80002A970FB6F894DEBF0FBECDBF789483E3EA
:100C900090E00E946A050E944D030E94C0000E94DD
:100CA00030062FEF89E698E1215080409040E1F72F
:100CB00000C000000E94ED030E94F10387E30E9440
:100CC000E20382E00E94E203682F606282E00E94F9
:100CD000D50383E00E94E203682F606883E00E94EE
:100CE000D5033D9A459880E090E00E94950300E08E
:100CF00010E02AE4C22E21E0D22E5E01E6E0AE0E24
:100D0000B11C0E94DA0080916D01813009F097C01A
:100D1000002319F0013021F190C0809177018130DA
:100D200029F41F5F812F90E00E949503809171014B
:100D3000813029F41150812F90E00E949503809119
:100D40007F01813009F079C080E090E00E94B20319
:100D500080E090E00E94B20310926C0101E06DC04F
:100D600080917F01882329F0812F90E00E949503D4
:100D700000E00E94530080916C018F5F80936C01B2
:100D800090E00E94B20380916C01843009F055C05C
:100D900081E00E947505812F0E94750599E7E92E73
:100DA00091E0F92E80916C0190E097012957314034
:100DB0002817390764F44701F70181917F0190E01A
:100DC0000E94AB02F40180810E947505EBCF0E9466
:100DD000F2058823E1F38130B1F40E94430360E01F
:100DE00080E00E943C0382E391E00E948102459AE8
:100DF000FFEF23ED80E3F15020408040E1F700C099
:100E00000000459813C00E94430360E080E00E9408
:100E10003C038DE391E00E9481029FEFE3EDF0E35C
:100E20009150E040F040E1F700C00000812F90E0D9
:100E30000E94950310926C0100E010926D01BE01BA
:100E40006F5F7F4F82E50E940005813009F059CF26
:100E5000C982CE0101960E943205813009F045C059
:100E600082E00E947505CE0101967C01F701819117
:100E70007F010E947505AE14BF04C1F70E94F20500
:100E80008823E1F38130B1F40E94430360E080E005
:100E90000E943C0382E391E00E948102459AFFEFA9
:100EA00023ED80E3F15020408040E1F700C00000D6
:100EB000459813C00E94430360E080E00E943C0319
:100EC0008DE391E00E9481029FEFE3EDF0E391500A
:100ED000E040F040E1F700C00000812F90E00E9468
:100EE000950310926C0100E00CCF85E0F82E80E0B5
:100EF0000E947505FA94F110FACF03CF45325105DF
:100F000020F4423010F00C948907FB011082CB01D1
:100F10000895BB274A3031F4992322F4BDE290951D
:100F200081959F4F0C94C607BB272A3051F4992313
:100F300042F4BDE290958095709561957F4F8F4FFB
:100F40009F4F0C94A407BB27FA01A62F62177105C7
:100F500081059105330B30FB66F0AA27660F771FDA
:100F6000881F991FAA1FA21710F0A21B6395385063
:100F7000A9F7A05DAA3308F0A95DA19336F7B111D6
:100F8000B1931082CA010C94DF07BB27FB015527E0
:100F9000AA27880F991FAA1FA41710F0A41B8395D6
:100FA0005051B9F7A05DAA3308F0A95DA19300974D
:100FB00079F7B111B1931192CB010C94DF07DC01E9
:100FC000FC01672F71917723E1F7329704C07C9180
:100FD0006D9370836291AE17BF07C8F30895F999B6
:100FE000FECF92BD81BDF89A992780B50895F894F7
:020FF000FFCF31
:100FF2004D696B6F6C616A0000004B727A79737A8B
:10100200746F6600576F6A63696563680000000069
:1010120000000000000000000000000000000000CE
:1010220000005763686F647A69737A2100427261C3
:101032006B20646F737465707521005779626965FE
:10104200727A206C6F67696E3A00506F64616A2031
:0A1052006861736C6F3A002A000019
:00000001FF
